S00C000076312E302E7372656313
S11300000C9434000C9451000C9451000C94510045
S11300100C9451000C9451000C9451000C94510018
S11300200C9451000C9451000C9451000C94510008
S11300300C9451000C9451000C9451000C945100F8
S11300400C9451000C9451000C9451000C945100E8
S11300500C9451000C9451000C9451000C945100D8
S11300600C9451000C94510011241FBECFEFD8E022
S1130070DEBFCDBF11E0A0E0B1E0E0E1FBE002C0F3
S113008005900D92AA30B107D9F721E0AAE0B1E0BA
S113009001C01D92AA31B207E1F70E9440020C94FC
S11300A086050C94000084EA8093BC00ECEBF0E03D
S11300B080818823ECF79091B900987F81E0983093
S11300C009F080E008958093BB0084E88093BC002D
S11300D0ECEBF0E080818823ECF79091B900987FF5
S11300E081E0983109F080E008958093BB0084E8B2
S11300F08093BC00ECEBF0E080818823ECF79091D6
S1130100B900987F81E0983209F480E0089584E88A
S11301108093BC00ECEBF0E080818823ECF78091C5
S1130120BB000895CF93DF93D82FC62F0E945300AE
S11301308EED0E9463008D2F0E9475008C2F0E940B
S1130140750084E98093BC00DF91CF910895CF932B
S1130150C62F0E9453008EED0E9463008C2F0E94D4
S113016075000E9453008FED0E9463000E94870077
S113017094E99093BC00CF91089560E08EED0E94C5
S1130180A700682F606880E00E949200089567E0ED
S11301908EED0E94A700682F606487E00E949200A1
S11301A0089563E08EED0E94A700682F686083E0E5
S11301B00E9492000895EF92FF920F931F93CF93A2
S11301C0DF93EC017B018A0162E08EED0E94A700BF
S11301D0888361E08EED0E94A700F701808360E0D0
S11301E08EED0E94A700F8018083888186FF03C0FA
S11301F08F71888302C08F738883DF91CF911F91A1
S11302000F91FF90EF900895409A419A429A439A31
S11302100895CF93DF9300D000D0CDB7DEB78983A4
S11302206A834B832C830E94040180910C0190917A
S11302300D01019683709078992324F401978C6FB3
S11302409F6F019690930D0180930C01FE01E80FBE
S1130250F91F818185B980910C0190910D01813044
S1130260910561F01CF4892B39F00DC082309105A1
S113027039F0039739F007C0409805C0419803C08E
S1130280429801C043980F900F900F900F90DF9108
S1130290CF910895CF93DF9300D000D0CDB7DEB7D0
S11302A089836A834B832C830E94040180910A0111
S11302B090910B01019683709078992324F401970F
S11302C08C6F9F6F019690930B0180930A01FE013E
S11302D0E80FF91FE181F0E0E050FF4F808185B91C
S11302E080910A0190910B018130910561F01CF419
S11302F0892B39F00DC08230910539F0039739F01C
S113030007C0409805C0419803C0429801C0439873
S11303100F900F900F900F90DF91CF910895CF938E
S1130320DF93D82FC62F0E9453008EED0E946300E6
S11303308D2F0E9475008C2F0E94750084E9809394
S1130340BC0060E080E00E9492000E94BD000E9418
S1130350C700DF91CF91089545E151E066E171E076
S113036087E191E00E94DB0080911701982F92951C
S11303709F709770909318018F70809317018091EC
S11303801601982F92959F709770909319018F7012
S11303908093160190911501892F82958F70282FD3
S11303A0220F820F880F981B9093150108950F93C5
S11303B01F93CF93DF93CDB7DEB729970FB6F89489
S11303C0DEBF0FBECDBF3C834D835E8361112CC065
S11303D080E1289F900111246C811DEC619F812D87
S11303E01124869586958695880F982F990F990FD5
S11303F0890F681B622B82E00E948F018D8120E1AE
S1130400829FC00111246E81619F112D11241695C4
S113041016951695110F912F990F990F190F611BAE
S1130420682B81E00E948F0129960FB6F894DEBFF5
S11304300FBECDBFDF91CF911F910F9108950F9300
S11304401F93CF93DF93CDB7DEB729970FB6F894F8
S1130450DEBF0FBECDBF711108C0209314013093CD
S11304601301409312015093110129960FB6F89489
S1130470DEBF0FBECDBFDF91CF911F910F910895C5
S1130480CF93DF93CDB7DEB76B970FB6F894DEBF8B
S11304900FBECDBF109215011092160110921701D4
S11304A060E080E00E9492006091160181E00E9469
S11304B092006091170182E00E9492000E94BD00A8
S11304C00E94C7000E94D1008FEF84B98FE087B9E2
S11304D018B880E78AB980E68BB9FE01319689E0C5
S11304E0DF011D928A95E9F71D8A1C8A1D861C86E8
S11304F000E010E0A12CB12C1B8A1A8A1B861E8AEC
S11305001F8A188E1B8EB1E0BA8799249394412CCC
S1130510512C812CE12CF12CC12CD12C612C712C6F
S11305200F2EF4EF2F2E33243394F02D81E0888B9B
S1130530198A90E2998FAEE4AA8F1F870E871DC097
S1130540B9E0BE8B1AC089E08E8B95E09F8B15C0F5
S1130550A9E0AE8BB5E0BF8B89E0888F0EC06894AC
S1130560992491F81A8A1B8AA12CB12C1E861F8605
S11305701C861D861C8A1D8A412C89B18270809339
S1130580100189B1817080930F0189B188708093C3
S11305900E010E94040180911001811103C02224E4
S11305A02394312C80910F01811158C280910E0146
S11305B081110CC00F2EFAE02F2EF02D312C06C025
S11305C00F2EF0E92F2EF02D3324339491100EC00A
S11305D05D98261437040CF487C29FEF691A790AD0
S11305E05D9A8091100181119BC009C08091100116
S11305F0882329F032C099249394612C712C809122
S11306000F01882309F47CC280910E01882329F10B
S11306102614370424F49394612C712C1EC0AFEF7C
S11306206A1A7A0A1AC0B1E0B815B8F483E09816C9
S113063009F4EAC01F82909118019B8FA0911701C1
S1130640A88FB0911901BF8B809116018E8B91E018
S11306509A87512CE12CF12C03C0A1E09A1260C0BE
S11306602E894F89688D8B8D0E944A018A899B89C6
S1130670892B49F4E12CF12C6894CC24C5F80F2E75
S1130680FEE4DF2EF02D182D11110DC027E842E9EC
S11306906FEA8EE80E940901CE14DF0484F19FEF13
S11306A0E91AF90AF1CF123068F1AA85A13061F58F
S11306B027E84FEC61EA86E80E940901AB28A9F01B
S11306C0CE14DF04B4F4812E99249394AA24A39421
S11306D0B12C91E09A8B1B8AA2E0AA870F2EF4E832
S11306E0EF2EF3E0FF2EF02D8FC0E12CF12CC98CFE
S11306F0DA8CBFEFEB1AFB0AA888B988C5CF882427
S1130700839403C0812E01C0812E8A85823009F032
S1130710AAC10F2EF4E8EF2EF3E0FF2EF02DA3C1B3
S113072092E0991271C0AA85A23010F0A150AA8754
S11307308E859F85892B51F4E12CF12C0F2EF8E93D
S1130740CF2EF02D0F2EFAE3DF2EF02D209116017F
S11307504091190160911701809118010E944A018A
S113076051102BC09A85913041F521EA43EA63EA9E
S113077082E00E940901CE14DF04DCF4839482E059
S11307808983A1E0AA83BB8DBB83888D8C839F89D9
S11307909D83AE89AE83BB85B98702E011E02B8DC2
S11307A0382F492F5A2F6F8178858B2F0E94D701BC
S11307B004C08FEFE81AF80AD8CFAC85BD85AB2BFF
S11307C049F4E12CF12C6894CC24C5F80F2EFEE4F6
S11307D0DF2EF02D511006C02FEA4FEA63EE86ECAF
S11307E00E940901CE14DF045CF40E94AC01B1E064
S11307F0BC871D86BE871F861A865524539404C061
S11308008FEFE81AF80AE6CF9B85923049F480917D
S11308100F01811124C05D9A5E9A18861B861FC041
S1130820AB85A130E1F490911401809118019813E3
S113083016C09091130180911701981310C09091E4
S113084012018091190198130AC0909111018091AD
S11308501601981304C05D985E98B2E0BB8783E0EC
S1130860981223C12E894F89688D8B8D0E944A016D
S113087080910E0181111BC080911001811117C05C
S113088080910F01811113C0188627EC46EC6BEAA6
S113089086EC0E94090101E21EE427EC46EC6BEAB7
S11308A086EC0E94090101501109B9F7E1C0AC8935
S11308B0BD89AB2B49F4E12CF12C6894CC24C5F808
S11308C00F2EFEE4DF2EF02D411006C02FEA48E87B
S11308D067EC88E80E940901CE14DF0454F4809187
S11308E00E01882351F044244394512C4C8A1D8AD0
S11308F03FC0BFEFEB1AFB0AE7CF809110018111D3
S113090032C083E089839A859A83AB8DAB83B88D9B
S1130910BC838F898D839E899E83AB85A98703E0E1
S11309201A852B8D3B2F482F592F6F8178858A2F5D
S11309300E941F0221EA43EA63EA82E00E9409015D
S113094001E21EE421EA43EA63EA82E00E9409012B
S113095001501109B9F78EC0512CB4E09B1609F46B
S1130960A8C0412C05C044244394512C4C8A1D8AB0
S113097082E0881204C00F2EF3E08F2EF02D892D13
S11309808D7F813009F0F9CD80910E018111A7C0CE
S113099080910F01882309F4F0CD9E899A3060F488
S11309A0261437042CF49F5F9E8B612C712C08C095
S11309B0AFEF6A1A7A0A04C0BF89BF5FBF8B1E8A71
S11309C08F89863020F0988D9F5F988F1F8AA88D1D
S11309D0AA3020F0BB8DBF5FBB8F188E8B8D823009
S11309E009F0CBCD988D933009F0C7CDAF89A530F0
S11309F009F0C3CDBE89B93009F0BFCD1E8A1F8A64
S1130A00188E1B8EBACD2614370434F48E89815087
S1130A108E8B612C712C03C09FEF691A790AAE8901
S1130A20AB3F08F4AACDBF89B150BF8BBB3F08F4DC
S1130A3087CD888D8150888F8B3F08F484CD9B8D22
S1130A4091509B8F9B3F08F483CDA9E0AE8BB5E01A
S1130A50BF8B83E0888F92E09B8F8FCD80910E01B6
S1130A608111AECDB3CD992493949A8A1B8ACCCEAE
S1130A701B8602C0A1E0AB871A8A1B8AA12CB12C69
S1130A801E861F861C861D861C8A1D8A0F2EF1E277
S1130A90EF2EFEE4FF2EF02D6894CC24C5F80F2E23
S1130AA0FEE4DF2EF02D512C27C0B2E09B1254CF70
S1130AB023C082E0881253CD6894992491F81A8A4D
S1130AC01B8AA12CB12C1E861F861C861D861C8A9F
S1130AD01D8A412C0F2EF3E08F2EF02D4ECD8091E8
S1130AE00F0181114ACD8FCF80911001882309F421
S1130AF082CD612C712CB4CD6894992491F82DCFBA
S1130B0080910E01882309F48ECDA7CDF894FFCFF0
S10D0B104079243019120278001015
S9030000FC
